{
  "_format": "hh-sol-artifact-1",
  "contractName": "GetterSetterFacet",
  "sourceName": "contracts/Staking/facets/GetterSetterFacet.sol",
  "abi": [
    {
      "inputs": [],
      "name": "getCurrentApr",
      "outputs": [
        {
          "internalType": "uint256",
          "name": "",
          "type": "uint256"
        }
      ],
      "stateMutability": "view",
      "type": "function"
    },
    {
      "inputs": [],
      "name": "getGlobalStakedBuds",
      "outputs": [
        {
          "internalType": "uint256",
          "name": "",
          "type": "uint256"
        }
      ],
      "stateMutability": "view",
      "type": "function"
    },
    {
      "inputs": [],
      "name": "getNumberOfStakers",
      "outputs": [
        {
          "internalType": "uint256",
          "name": "",
          "type": "uint256"
        }
      ],
      "stateMutability": "view",
      "type": "function"
    },
    {
      "inputs": [],
      "name": "getTotalStakedFarmers",
      "outputs": [
        {
          "internalType": "uint256",
          "name": "",
          "type": "uint256"
        }
      ],
      "stateMutability": "view",
      "type": "function"
    },
    {
      "inputs": [
        {
          "internalType": "address",
          "name": "user",
          "type": "address"
        }
      ],
      "name": "getUserStakes",
      "outputs": [
        {
          "components": [
            {
              "internalType": "address",
              "name": "owner",
              "type": "address"
            },
            {
              "internalType": "uint256",
              "name": "timeStamp",
              "type": "uint256"
            },
            {
              "internalType": "uint256",
              "name": "budsAmount",
              "type": "uint256"
            },
            {
              "internalType": "uint256",
              "name": "farmerTokenId",
              "type": "uint256"
            }
          ],
          "internalType": "struct LibGlobalVarState.Stake[]",
          "name": "",
          "type": "tuple[]"
        }
      ],
      "stateMutability": "view",
      "type": "function"
    },
    {
      "inputs": [],
      "name": "getlocalStakedBuds",
      "outputs": [
        {
          "internalType": "uint256",
          "name": "",
          "type": "uint256"
        }
      ],
      "stateMutability": "view",
      "type": "function"
    },
    {
      "inputs": [
        {
          "internalType": "uint256",
          "name": "liquidity",
          "type": "uint256"
        }
      ],
      "name": "setGlobalStakedBuds",
      "outputs": [
        {
          "internalType": "uint256",
          "name": "",
          "type": "uint256"
        }
      ],
      "stateMutability": "nonpayable",
      "type": "function"
    },
    {
      "inputs": [
        {
          "internalType": "uint256",
          "name": "chains",
          "type": "uint256"
        }
      ],
      "name": "setNoOfChains",
      "outputs": [],
      "stateMutability": "nonpayable",
      "type": "function"
    },
    {
      "inputs": [
        {
          "internalType": "uint256",
          "name": "_raidFees",
          "type": "uint256"
        }
      ],
      "name": "setRaidFees",
      "outputs": [],
      "stateMutability": "nonpayable",
      "type": "function"
    },
    {
      "inputs": [
        {
          "internalType": "address",
          "name": "_address",
          "type": "address"
        }
      ],
      "name": "setRaidHandler",
      "outputs": [],
      "stateMutability": "nonpayable",
      "type": "function"
    },
    {
      "inputs": [
        {
          "internalType": "address payable",
          "name": "newAddress",
          "type": "address"
        }
      ],
      "name": "setTreasury",
      "outputs": [],
      "stateMutability": "nonpayable",
      "type": "function"
    }
  ],
  "bytecode": "0x608060405234801561001057600080fd5b5061077c806100206000396000f3fe608060405234801561001057600080fd5b50600436106100995760003560e01c80630903b3351461009e57806325970f6d146100b95780632d6fe6e1146100ce5780634269e94c146100e15780635ec6bd9f146100e9578063658b6729146100f1578063842e2981146100f9578063adb7362414610119578063c9990c2a1461012c578063e219711014610134578063f0f4426014610147575b600080fd5b6100a661015a565b6040519081526020015b60405180910390f35b6100cc6100c73660046105e7565b61016d565b005b6100a66100dc3660046105e7565b6101b5565b6100a66101c9565b6100a66101dc565b6100a66101eb565b61010c610107366004610618565b610215565b6040516100b0919061063c565b6100cc6101273660046105e7565b610374565b6100a6610384565b6100cc610142366004610618565b610397565b6100cc610155366004610618565b610407565b6000610164610477565b60010154905090565b3361017661049b565b6001600160a01b0316146101a55760405162461bcd60e51b815260040161019c906106a9565b60405180910390fd5b806101ae610477565b6003015550565b6000816101c0610477565b60010155919050565b60006101d3610477565b60020154905090565b60006101e66104c9565b905090565b60007f39862a516fda186d1f1297d3e440ca5a6821dc1b6db3dab91fa792ef6b9017315b54919050565b606060006102216105c3565b6001600160a01b038416600090815260209190915260408120549150816001600160401b03811115610255576102556106cd565b6040519080825280602002602001820160405280156102ba57816020015b6102a7604051806080016040528060006001600160a01b031681526020016000815260200160008152602001600081525090565b8152602001906001900390816102735790505b50905060005b8281101561036c576102d06105c3565b6001600160a01b0386166000908152602091909152604090208054829081106102fb576102fb6106e3565b600091825260209182902060408051608081018252600490930290910180546001600160a01b0316835260018101549383019390935260028301549082015260039091015460608201528251839083908110610359576103596106e3565b60209081029190910101526001016102c0565b509392505050565b8061037d610477565b6006015550565b600061038e610477565b60050154905090565b336103a061049b565b6001600160a01b0316146103c65760405162461bcd60e51b815260040161019c906106a9565b7fe869943523021c675c140571db1cf1b6bf7eb1f1be00799953fbda44e4a8a53d80546001600160a01b0319166001600160a01b0392909216919091179055565b3361041061049b565b6001600160a01b0316146104365760405162461bcd60e51b815260040161019c906106a9565b7f7be5d4bad8f531ca252b2117d18f51b189969cb22caceabcaafa940943e476e380546001600160a01b0319166001600160a01b0392909216919091179055565b7fba3cc2fc2b9f13603c52814019be4e684a84436894922ffb33d14e35c47057ce90565b7fc8fcad8db84d3cc18b4c41d551ea0ee66dd599cde068d998e57d5e09332c1320546001600160a01b031690565b60006104d3610477565b600201546000036104e65761020f610477565b60006104f0610477565b6002015461050690670de0b6b3a76400006106f9565b90506000610512610477565b6001015461052890670de0b6b3a76400006106f9565b90506000610534610477565b600301546105429083610724565b9050600080610552606486610724565b945061055e8584610724565b915060648261056b610477565b5461057691906106f9565b6105809190610724565b9050600a811015610598576103e89550505050505090565b60c88111156105ae57614e209550505050505090565b6105b98160646106f9565b9550505050505090565b7f21499027fdc7e496e6b98f521e3109c264705bb49b8c35e99171105593852a9590565b6000602082840312156105f957600080fd5b5035919050565b6001600160a01b038116811461061557600080fd5b50565b60006020828403121561062a57600080fd5b813561063581610600565b9392505050565b602080825282518282018190526000919060409081850190868401855b8281101561069c57815180516001600160a01b03168552868101518786015285810151868601526060908101519085015260809093019290850190600101610659565b5091979650505050505050565b6020808252600a908201526927b7363c9037bbb732b960b11b604082015260600190565b634e487b7160e01b600052604160045260246000fd5b634e487b7160e01b600052603260045260246000fd5b808202811582820484141761071e57634e487b7160e01b600052601160045260246000fd5b92915050565b60008261074157634e487b7160e01b600052601260045260246000fd5b50049056fea264697066735822122075af4a18ed36043470d22e14db6ae6f73177d945fec3e9e53655d178ba2eaffb64736f6c63430008160033",
  "linkReferences": {},
  "deployedLinkReferences": {}
}