{
  "abi": [
    {
      "type": "constructor",
      "inputs": [
        {
          "name": "_token",
          "type": "address",
          "internalType": "address"
        },
        {
          "name": "_verifier",
          "type": "address",
          "internalType": "address"
        },
        {
          "name": "_admin",
          "type": "address",
          "internalType": "address"
        },
        {
          "name": "_maxAge",
          "type": "uint256",
          "internalType": "uint256"
        }
      ],
      "stateMutability": "nonpayable"
    },
    {
      "type": "function",
      "name": "ATTESTATION_MAX_AGE",
      "inputs": [],
      "outputs": [
        {
          "name": "",
          "type": "uint256",
          "internalType": "uint256"
        }
      ],
      "stateMutability": "view"
    },
    {
      "type": "function",
      "name": "ATTESTATION_VERIFIER",
      "inputs": [],
      "outputs": [
        {
          "name": "",
          "type": "address",
          "internalType": "contract IAttestationVerifier"
        }
      ],
      "stateMutability": "view"
    },
    {
      "type": "function",
      "name": "DEFAULT_ADMIN_ROLE",
      "inputs": [],
      "outputs": [
        {
          "name": "",
          "type": "bytes32",
          "internalType": "bytes32"
        }
      ],
      "stateMutability": "view"
    },
    {
      "type": "function",
      "name": "admin",
      "inputs": [],
      "outputs": [
        {
          "name": "",
          "type": "address",
          "internalType": "address"
        }
      ],
      "stateMutability": "view"
    },
    {
      "type": "function",
      "name": "createJob",
      "inputs": [
        {
          "name": "_validations",
          "type": "tuple[]",
          "internalType": "struct IJobManager.ValidationSetup[]",
          "components": [
            {
              "name": "validationAddress",
              "type": "address",
              "internalType": "address"
            },
            {
              "name": "validationFunction",
              "type": "bytes4",
              "internalType": "bytes4"
            },
            {
              "name": "initializerFunction",
              "type": "bytes4",
              "internalType": "bytes4"
            },
            {
              "name": "initializerData",
              "type": "bytes",
              "internalType": "bytes"
            }
          ]
        },
        {
          "name": "_enclave_url",
          "type": "string",
          "internalType": "string"
        },
        {
          "name": "_pcrs",
          "type": "tuple",
          "internalType": "struct IJobManager.Image",
          "components": [
            {
              "name": "PCR0",
              "type": "bytes",
              "internalType": "bytes"
            },
            {
              "name": "PCR1",
              "type": "bytes",
              "internalType": "bytes"
            },
            {
              "name": "PCR2",
              "type": "bytes",
              "internalType": "bytes"
            }
          ]
        },
        {
          "name": "_input",
          "type": "bytes",
          "internalType": "bytes"
        },
        {
          "name": "_paymentPerExecution",
          "type": "uint256",
          "internalType": "uint256"
        },
        {
          "name": "_maxBaseFee",
          "type": "uint256",
          "internalType": "uint256"
        },
        {
          "name": "_maxPriorityFee",
          "type": "uint256",
          "internalType": "uint256"
        },
        {
          "name": "_gasRefundAmount",
          "type": "uint256",
          "internalType": "uint256"
        },
        {
          "name": "_amount",
          "type": "uint256",
          "internalType": "uint256"
        }
      ],
      "outputs": [
        {
          "name": "",
          "type": "uint256",
          "internalType": "uint256"
        }
      ],
      "stateMutability": "payable"
    },
    {
      "type": "function",
      "name": "executeJob",
      "inputs": [
        {
          "name": "jobId",
          "type": "uint256",
          "internalType": "uint256"
        },
        {
          "name": "data",
          "type": "bytes",
          "internalType": "bytes"
        },
        {
          "name": "attestation",
          "type": "bytes",
          "internalType": "bytes"
        }
      ],
      "outputs": [],
      "stateMutability": "nonpayable"
    },
    {
      "type": "function",
      "name": "getRoleAdmin",
      "inputs": [
        {
          "name": "role",
          "type": "bytes32",
          "internalType": "bytes32"
        }
      ],
      "outputs": [
        {
          "name": "",
          "type": "bytes32",
          "internalType": "bytes32"
        }
      ],
      "stateMutability": "view"
    },
    {
      "type": "function",
      "name": "getRoleMember",
      "inputs": [
        {
          "name": "role",
          "type": "bytes32",
          "internalType": "bytes32"
        },
        {
          "name": "index",
          "type": "uint256",
          "internalType": "uint256"
        }
      ],
      "outputs": [
        {
          "name": "",
          "type": "address",
          "internalType": "address"
        }
      ],
      "stateMutability": "view"
    },
    {
      "type": "function",
      "name": "getRoleMemberCount",
      "inputs": [
        {
          "name": "role",
          "type": "bytes32",
          "internalType": "bytes32"
        }
      ],
      "outputs": [
        {
          "name": "",
          "type": "uint256",
          "internalType": "uint256"
        }
      ],
      "stateMutability": "view"
    },
    {
      "type": "function",
      "name": "getVerifiedKey",
      "inputs": [
        {
          "name": "_key",
          "type": "address",
          "internalType": "address"
        }
      ],
      "outputs": [
        {
          "name": "",
          "type": "bytes32",
          "internalType": "bytes32"
        }
      ],
      "stateMutability": "view"
    },
    {
      "type": "function",
      "name": "getWhitelistedImage",
      "inputs": [
        {
          "name": "_imageId",
          "type": "bytes32",
          "internalType": "bytes32"
        }
      ],
      "outputs": [
        {
          "name": "",
          "type": "tuple",
          "internalType": "struct AttestationAuther.EnclaveImage",
          "components": [
            {
              "name": "PCR0",
              "type": "bytes",
              "internalType": "bytes"
            },
            {
              "name": "PCR1",
              "type": "bytes",
              "internalType": "bytes"
            },
            {
              "name": "PCR2",
              "type": "bytes",
              "internalType": "bytes"
            }
          ]
        }
      ],
      "stateMutability": "view"
    },
    {
      "type": "function",
      "name": "grantRole",
      "inputs": [
        {
          "name": "role",
          "type": "bytes32",
          "internalType": "bytes32"
        },
        {
          "name": "account",
          "type": "address",
          "internalType": "address"
        }
      ],
      "outputs": [],
      "stateMutability": "nonpayable"
    },
    {
      "type": "function",
      "name": "hasRole",
      "inputs": [
        {
          "name": "role",
          "type": "bytes32",
          "internalType": "bytes32"
        },
        {
          "name": "account",
          "type": "address",
          "internalType": "address"
        }
      ],
      "outputs": [
        {
          "name": "",
          "type": "bool",
          "internalType": "bool"
        }
      ],
      "stateMutability": "view"
    },
    {
      "type": "function",
      "name": "isEnclaveKeyValid",
      "inputs": [
        {
          "name": "key",
          "type": "address",
          "internalType": "address"
        }
      ],
      "outputs": [],
      "stateMutability": "nonpayable"
    },
    {
      "type": "function",
      "name": "jobCount",
      "inputs": [],
      "outputs": [
        {
          "name": "",
          "type": "uint256",
          "internalType": "uint256"
        }
      ],
      "stateMutability": "view"
    },
    {
      "type": "function",
      "name": "jobs",
      "inputs": [
        {
          "name": "",
          "type": "uint256",
          "internalType": "uint256"
        }
      ],
      "outputs": [
        {
          "name": "creator",
          "type": "address",
          "internalType": "address"
        },
        {
          "name": "image",
          "type": "tuple",
          "internalType": "struct IJobManager.Image",
          "components": [
            {
              "name": "PCR0",
              "type": "bytes",
              "internalType": "bytes"
            },
            {
              "name": "PCR1",
              "type": "bytes",
              "internalType": "bytes"
            },
            {
              "name": "PCR2",
              "type": "bytes",
              "internalType": "bytes"
            }
          ]
        },
        {
          "name": "enclave_url",
          "type": "string",
          "internalType": "string"
        },
        {
          "name": "input",
          "type": "bytes",
          "internalType": "bytes"
        },
        {
          "name": "paymentPerExecution",
          "type": "uint256",
          "internalType": "uint256"
        },
        {
          "name": "lastExecutionTime",
          "type": "uint256",
          "internalType": "uint256"
        },
        {
          "name": "maxBaseFee",
          "type": "uint256",
          "internalType": "uint256"
        },
        {
          "name": "maxPriorityFee",
          "type": "uint256",
          "internalType": "uint256"
        },
        {
          "name": "gasRefundAmount",
          "type": "uint256",
          "internalType": "uint256"
        },
        {
          "name": "amount",
          "type": "uint256",
          "internalType": "uint256"
        }
      ],
      "stateMutability": "view"
    },
    {
      "type": "function",
      "name": "renounceRole",
      "inputs": [
        {
          "name": "role",
          "type": "bytes32",
          "internalType": "bytes32"
        },
        {
          "name": "account",
          "type": "address",
          "internalType": "address"
        }
      ],
      "outputs": [],
      "stateMutability": "nonpayable"
    },
    {
      "type": "function",
      "name": "revokeRole",
      "inputs": [
        {
          "name": "role",
          "type": "bytes32",
          "internalType": "bytes32"
        },
        {
          "name": "account",
          "type": "address",
          "internalType": "address"
        }
      ],
      "outputs": [],
      "stateMutability": "nonpayable"
    },
    {
      "type": "function",
      "name": "supportsInterface",
      "inputs": [
        {
          "name": "interfaceId",
          "type": "bytes4",
          "internalType": "bytes4"
        }
      ],
      "outputs": [
        {
          "name": "",
          "type": "bool",
          "internalType": "bool"
        }
      ],
      "stateMutability": "view"
    },
    {
      "type": "function",
      "name": "token",
      "inputs": [],
      "outputs": [
        {
          "name": "",
          "type": "address",
          "internalType": "contract ERC20"
        }
      ],
      "stateMutability": "view"
    },
    {
      "type": "function",
      "name": "updateToken",
      "inputs": [
        {
          "name": "_token",
          "type": "address",
          "internalType": "address"
        }
      ],
      "outputs": [],
      "stateMutability": "nonpayable"
    },
    {
      "type": "function",
      "name": "verifyKey",
      "inputs": [
        {
          "name": "signature",
          "type": "bytes",
          "internalType": "bytes"
        },
        {
          "name": "enclavePubKey",
          "type": "bytes",
          "internalType": "bytes"
        },
        {
          "name": "imageId",
          "type": "bytes32",
          "internalType": "bytes32"
        },
        {
          "name": "enclaveCPUs",
          "type": "uint256",
          "internalType": "uint256"
        },
        {
          "name": "enclaveMemory",
          "type": "uint256",
          "internalType": "uint256"
        },
        {
          "name": "timestampInMilliseconds",
          "type": "uint256",
          "internalType": "uint256"
        }
      ],
      "outputs": [],
      "stateMutability": "nonpayable"
    },
    {
      "type": "event",
      "name": "EnclaveImageRevoked",
      "inputs": [
        {
          "name": "imageId",
          "type": "bytes32",
          "indexed": true,
          "internalType": "bytes32"
        }
      ],
      "anonymous": false
    },
    {
      "type": "event",
      "name": "EnclaveImageWhitelisted",
      "inputs": [
        {
          "name": "imageId",
          "type": "bytes32",
          "indexed": true,
          "internalType": "bytes32"
        },
        {
          "name": "PCR0",
          "type": "bytes",
          "indexed": false,
          "internalType": "bytes"
        },
        {
          "name": "PCR1",
          "type": "bytes",
          "indexed": false,
          "internalType": "bytes"
        },
        {
          "name": "PCR2",
          "type": "bytes",
          "indexed": false,
          "internalType": "bytes"
        }
      ],
      "anonymous": false
    },
    {
      "type": "event",
      "name": "EnclaveKeyRevoked",
      "inputs": [
        {
          "name": "enclavePubKey",
          "type": "bytes",
          "indexed": true,
          "internalType": "bytes"
        }
      ],
      "anonymous": false
    },
    {
      "type": "event",
      "name": "EnclaveKeyVerified",
      "inputs": [
        {
          "name": "enclavePubKey",
          "type": "bytes",
          "indexed": true,
          "internalType": "bytes"
        },
        {
          "name": "imageId",
          "type": "bytes32",
          "indexed": true,
          "internalType": "bytes32"
        }
      ],
      "anonymous": false
    },
    {
      "type": "event",
      "name": "EnclaveKeyWhitelisted",
      "inputs": [
        {
          "name": "enclavePubKey",
          "type": "bytes",
          "indexed": true,
          "internalType": "bytes"
        },
        {
          "name": "imageId",
          "type": "bytes32",
          "indexed": true,
          "internalType": "bytes32"
        }
      ],
      "anonymous": false
    },
    {
      "type": "event",
      "name": "JobCreated",
      "inputs": [
        {
          "name": "jobId",
          "type": "uint256",
          "indexed": true,
          "internalType": "uint256"
        },
        {
          "name": "enclaveUrl",
          "type": "string",
          "indexed": false,
          "internalType": "string"
        },
        {
          "name": "input",
          "type": "bytes",
          "indexed": false,
          "internalType": "bytes"
        },
        {
          "name": "creator",
          "type": "address",
          "indexed": true,
          "internalType": "address"
        },
        {
          "name": "validations",
          "type": "tuple[]",
          "indexed": false,
          "internalType": "struct JobManager.Validation[]",
          "components": [
            {
              "name": "validationAddress",
              "type": "address",
              "internalType": "address"
            },
            {
              "name": "validationFunction",
              "type": "bytes4",
              "internalType": "bytes4"
            }
          ]
        },
        {
          "name": "paymentPerExecution",
          "type": "uint256",
          "indexed": false,
          "internalType": "uint256"
        },
        {
          "name": "maxBaseFee",
          "type": "uint256",
          "indexed": false,
          "internalType": "uint256"
        },
        {
          "name": "maxPriorityFee",
          "type": "uint256",
          "indexed": false,
          "internalType": "uint256"
        },
        {
          "name": "gasRefundAmount",
          "type": "uint256",
          "indexed": false,
          "internalType": "uint256"
        },
        {
          "name": "amount",
          "type": "uint256",
          "indexed": false,
          "internalType": "uint256"
        }
      ],
      "anonymous": false
    },
    {
      "type": "event",
      "name": "JobExecuted",
      "inputs": [
        {
          "name": "jobId",
          "type": "uint256",
          "indexed": true,
          "internalType": "uint256"
        },
        {
          "name": "executor",
          "type": "address",
          "indexed": true,
          "internalType": "address"
        },
        {
          "name": "payment",
          "type": "uint256",
          "indexed": false,
          "internalType": "uint256"
        },
        {
          "name": "data",
          "type": "bytes",
          "indexed": false,
          "internalType": "bytes"
        }
      ],
      "anonymous": false
    },
    {
      "type": "event",
      "name": "RoleAdminChanged",
      "inputs": [
        {
          "name": "role",
          "type": "bytes32",
          "indexed": true,
          "internalType": "bytes32"
        },
        {
          "name": "previousAdminRole",
          "type": "bytes32",
          "indexed": true,
          "internalType": "bytes32"
        },
        {
          "name": "newAdminRole",
          "type": "bytes32",
          "indexed": true,
          "internalType": "bytes32"
        }
      ],
      "anonymous": false
    },
    {
      "type": "event",
      "name": "RoleGranted",
      "inputs": [
        {
          "name": "role",
          "type": "bytes32",
          "indexed": true,
          "internalType": "bytes32"
        },
        {
          "name": "account",
          "type": "address",
          "indexed": true,
          "internalType": "address"
        },
        {
          "name": "sender",
          "type": "address",
          "indexed": true,
          "internalType": "address"
        }
      ],
      "anonymous": false
    },
    {
      "type": "event",
      "name": "RoleRevoked",
      "inputs": [
        {
          "name": "role",
          "type": "bytes32",
          "indexed": true,
          "internalType": "bytes32"
        },
        {
          "name": "account",
          "type": "address",
          "indexed": true,
          "internalType": "address"
        },
        {
          "name": "sender",
          "type": "address",
          "indexed": true,
          "internalType": "address"
        }
      ],
      "anonymous": false
    },
    {
      "type": "event",
      "name": "TokenUpdated",
      "inputs": [
        {
          "name": "token",
          "type": "address",
          "indexed": true,
          "internalType": "address"
        }
      ],
      "anonymous": false
    },
    {
      "type": "event",
      "name": "VerifierUpdated",
      "inputs": [
        {
          "name": "verifier",
          "type": "address",
          "indexed": true,
          "internalType": "address"
        }
      ],
      "anonymous": false
    }
  ],
  "bytecode": {
    "object": "0x60c06040523480156200001157600080fd5b506040516200375e3803806200375e8339810160408190526200003491620006c0565b60408051600080825260208201909252849183919062000088565b6200007460405180606001604052806060815260200160608152602001606081525090565b8152602001906001900390816200004f5790505b506001600160a01b03831660805260a082905260005b8151811015620000df57620000d5828281518110620000c157620000c162000728565b60200260200101516200011860201b60201c565b506001016200009e565b50505050620000f4846200030a60201b60201c565b620001016000836200039c565b6200010e600033620003c7565b50505050620009b8565b80515160009060301480156200013357508160200151516030145b80156200014557508160400151516030145b620001a15760405162461bcd60e51b815260206004820152602160248201527f41413a57492d5043522076616c756573206d75737420626520343820627974656044820152607360f81b60648201526084015b60405180910390fd5b6000826000015183602001518460400151604051602001620001c69392919062000764565b60408051601f1981840301815291815281516020928301206000818152928390529120805491925090620001fa90620007ad565b1590506200024b5760405162461bcd60e51b815260206004820152601f60248201527f41413a57492d696d61676520616c72656164792077686974656c697374656400604482015260640162000198565b604080516060810182528451815260208086015181830152858301518284015260008481529081905291909120815181906200028890826200083d565b50602082015160018201906200029f90826200083d565b5060408201516002820190620002b690826200083d565b50905050807f52b29bbdd97ab983419f50fa1590e5ab75e9942279e95e10a08607b06c23238b846000015185602001518660400151604051620002fc9392919062000937565b60405180910390a292915050565b6001600160a01b038116620003525760405162461bcd60e51b815260206004820152600d60248201526c24b73b30b634b2103a37b5b2b760991b604482015260640162000198565b600680546001600160a01b0319166001600160a01b0383169081179091556040517f5ba6b30cd4b2f9e9e67f4feb9b9df10d5da3b057598e6901b217b7d590345e3090600090a250565b620003a88282620003ed565b6000828152600360205260409020620003c2908262000492565b505050565b620003d38282620004b2565b6000828152600360205260409020620003c2908262000536565b60008281526002602090815260408083206001600160a01b038516845290915290205460ff166200048e5760008281526002602090815260408083206001600160a01b03851684529091529020805460ff191660011790556200044d3390565b6001600160a01b0316816001600160a01b0316837f2f8788117e7eff1d82e926ec794901d17c78024a50270940304540a733656f0d60405160405180910390a45b5050565b6000620004a9836001600160a01b0384166200054d565b90505b92915050565b60008281526002602090815260408083206001600160a01b038516845290915290205460ff16156200048e5760008281526002602090815260408083206001600160a01b0385168085529252808320805460ff1916905551339285917ff6391f5c32d9c69d2a47ea670b442974b53935d1edc7fd64eb21e047a839171b9190a45050565b6000620004a9836001600160a01b0384166200059f565b60008181526001830160205260408120546200059657508154600181810184556000848152602080822090930184905584548482528286019093526040902091909155620004ac565b506000620004ac565b6000818152600183016020526040812054801562000698576000620005c660018362000980565b8554909150600090620005dc9060019062000980565b90508181146200064857600086600001828154811062000600576200060062000728565b906000526020600020015490508087600001848154811062000626576200062662000728565b6000918252602080832090910192909255918252600188019052604090208390555b85548690806200065c576200065c620009a2565b600190038181906000526020600020016000905590558560010160008681526020019081526020016000206000905560019350505050620004ac565b6000915050620004ac565b80516001600160a01b0381168114620006bb57600080fd5b919050565b60008060008060808587031215620006d757600080fd5b620006e285620006a3565b9350620006f260208601620006a3565b92506200070260408601620006a3565b6060959095015193969295505050565b634e487b7160e01b600052604160045260246000fd5b634e487b7160e01b600052603260045260246000fd5b60005b838110156200075b57818101518382015260200162000741565b50506000910152565b60008451620007788184602089016200073e565b8451908301906200078e8183602089016200073e565b8451910190620007a38183602088016200073e565b0195945050505050565b600181811c90821680620007c257607f821691505b602082108103620007e357634e487b7160e01b600052602260045260246000fd5b50919050565b601f821115620003c2576000816000526020600020601f850160051c81016020861015620008145750805b601f850160051c820191505b81811015620008355782815560010162000820565b505050505050565b81516001600160401b0381111562000859576200085962000712565b62000871816200086a8454620007ad565b84620007e9565b602080601f831160018114620008a95760008415620008905750858301515b600019600386901b1c1916600185901b17855562000835565b600085815260208120601f198616915b82811015620008da57888601518255948401946001909101908401620008b9565b5085821015620008f95787850151600019600388901b60f8161c191681555b5050505050600190811b01905550565b60008151808452620009238160208601602086016200073e565b601f01601f19169290920160200192915050565b6060815260006200094c606083018662000909565b828103602084015262000960818662000909565b9050828103604084015262000976818562000909565b9695505050505050565b81810381811115620004ac57634e487b7160e01b600052601160045260246000fd5b634e487b7160e01b600052603160045260246000fd5b60805160a051612d72620009ec6000396000818161034601526117840152600081816103e201526119d30152612d726000f3fe6080604052600436106101355760003560e01c806391d14854116100ab578063ca15c8731161006f578063ca15c873146103b0578063cd79f906146103d0578063d547741f14610404578063f851a44014610424578063fb94db2b14610444578063fc0c546a1461046457600080fd5b806391d14854146103145780639aec990e14610334578063a217fddf14610368578063a7b39a151461037d578063a9d417301461039057600080fd5b8063248a9ca3116100fd578063248a9ca3146102365780632f2ff15d1461026657806336568abe146102865780634c5d8a0f146102a65780637ad3def2146102bc5780639010d07c146102dc57600080fd5b806301d58fa31461013a57806301ffc9a714610183578063122748ab146101b3578063180aedf3146101d35780632410f6ba14610209575b600080fd5b34801561014657600080fd5b50610170610155366004612248565b6001600160a01b031660009081526001602052604090205490565b6040519081526020015b60405180910390f35b34801561018f57600080fd5b506101a361019e36600461227b565b610484565b604051901515815260200161017a565b3480156101bf57600080fd5b506101d16101ce366004612248565b50565b005b3480156101df57600080fd5b506101f36101ee366004612296565b6104af565b60405161017a9a99989796959493929190612350565b34801561021557600080fd5b50610229610224366004612296565b6107d5565b60405161017a91906123d4565b34801561024257600080fd5b50610170610251366004612296565b60009081526002602052604090206001015490565b34801561027257600080fd5b506101d16102813660046123e7565b6109ce565b34801561029257600080fd5b506101d16102a13660046123e7565b6109f8565b3480156102b257600080fd5b5061017060045481565b3480156102c857600080fd5b506101d16102d7366004612248565b610a7b565b3480156102e857600080fd5b506102fc6102f7366004612413565b610acb565b6040516001600160a01b03909116815260200161017a565b34801561032057600080fd5b506101a361032f3660046123e7565b610aea565b34801561034057600080fd5b506101707f000000000000000000000000000000000000000000000000000000000000000081565b34801561037457600080fd5b50610170600081565b61017061038b3660046126cd565b610b15565b34801561039c57600080fd5b506101d16103ab3660046127a8565b610ea9565b3480156103bc57600080fd5b506101706103cb366004612296565b6112b4565b3480156103dc57600080fd5b506102fc7f000000000000000000000000000000000000000000000000000000000000000081565b34801561041057600080fd5b506101d161041f3660046123e7565b6112cb565b34801561043057600080fd5b506007546102fc906001600160a01b031681565b34801561045057600080fd5b506101d161045f366004612815565b6112f0565b34801561047057600080fd5b506006546102fc906001600160a01b031681565b60006001600160e01b03198216635a05180f60e01b14806104a957506104a982611306565b92915050565b6005602052600090815260409081902080548251606081019093526002820180546001600160a01b039092169391829082906104ea9061289c565b80601f01602080910402602001604051908101604052809291908181526020018280546105169061289c565b80156105635780601f1061053857610100808354040283529160200191610563565b820191906000526020600020905b81548152906001019060200180831161054657829003601f168201915b5050505050815260200160018201805461057c9061289c565b80601f01602080910402602001604051908101604052809291908181526020018280546105a89061289c565b80156105f55780601f106105ca576101008083540402835291602001916105f5565b820191906000526020600020905b8154815290600101906020018083116105d857829003601f168201915b5050505050815260200160028201805461060e9061289c565b80601f016020809104026020016040519081016040528092919081815260200182805461063a9061289c565b80156106875780601f1061065c57610100808354040283529160200191610687565b820191906000526020600020905b81548152906001019060200180831161066a57829003601f168201915b505050505081525050908060050180546106a09061289c565b80601f01602080910402602001604051908101604052809291908181526020018280546106cc9061289c565b80156107195780601f106106ee57610100808354040283529160200191610719565b820191906000526020600020905b8154815290600101906020018083116106fc57829003601f168201915b50505050509080600601805461072e9061289c565b80601f016020809104026020016040519081016040528092919081815260200182805461075a9061289c565b80156107a75780601f1061077c576101008083540402835291602001916107a7565b820191906000526020600020905b81548152906001019060200180831161078a57829003601f168201915b50505050509080600701549080600801549080600901549080600a01549080600b01549080600c015490508a565b6107f960405180606001604052806060815260200160608152602001606081525090565b600082815260208190526040908190208151606081019092528054829082906108219061289c565b80601f016020809104026020016040519081016040528092919081815260200182805461084d9061289c565b801561089a5780601f1061086f5761010080835404028352916020019161089a565b820191906000526020600020905b81548152906001019060200180831161087d57829003601f168201915b505050505081526020016001820180546108b39061289c565b80601f01602080910402602001604051908101604052809291908181526020018280546108df9061289c565b801561092c5780601f106109015761010080835404028352916020019161092c565b820191906000526020600020905b81548152906001019060200180831161090f57829003601f168201915b505050505081526020016002820180546109459061289c565b80601f01602080910402602001604051908101604052809291908181526020018280546109719061289c565b80156109be5780601f10610993576101008083540402835291602001916109be565b820191906000526020600020905b8154815290600101906020018083116109a157829003601f168201915b5050505050815250509050919050565b6000828152600260205260409020600101546109e98161133b565b6109f38383611345565b505050565b6001600160a01b0381163314610a6d5760405162461bcd60e51b815260206004820152602f60248201527f416363657373436f6e74726f6c3a2063616e206f6e6c792072656e6f756e636560448201526e103937b632b9903337b91039b2b63360891b60648201526084015b60405180910390fd5b610a778282611367565b5050565b6007546001600160a01b03163314610ac25760405162461bcd60e51b815260206004820152600a60248201526927b7363c9030b236b4b760b11b6044820152606401610a64565b6101ce81611389565b6000828152600360205260408120610ae39083611419565b9392505050565b60009182526002602090815260408084206001600160a01b0393909316845291905290205460ff1690565b600085600003610b675760405162461bcd60e51b815260206004820152601d60248201527f496e76616c6964207061796d656e742070657220657865637574696f6e0000006044820152606401610a64565b81600003610bae5760405162461bcd60e51b8152602060048201526014602482015273125b9d985b1a59081d1bdad95b88185b5bdd5b9d60621b6044820152606401610a64565b6006546040516323b872dd60e01b8152336004820152306024820152604481018490526001600160a01b03909116906323b872dd906064016020604051808303816000875af1158015610c05573d6000803e3d6000fd5b505050506040513d601f19601f82011682018060405250810190610c2991906128d6565b5060048054906000610c3a8361290e565b909155505060045460009081526005602090815260409182902080546001600160a01b0319163317815582516060810184528b518082528c840151938201939093528b84015193810193909352919060028301908190610c9a908261296f565b5060208201516001820190610caf908261296f565b5060408201516002820190610cc4908261296f565b50505060058101610cd58b8261296f565b5060068101610ce4898261296f565b50600781018790556000600882015560098101869055600a810185905534841115610d515760405162461bcd60e51b815260206004820152601e60248201527f47617320726566756e6420616d6f756e7420696e73756666696369656e7400006044820152606401610a64565b600b8101849055600c810183905560005b8b51811015610e4157610d8e8c8281518110610d8057610d80612a2f565b602002602001015182611425565b8160010160405180604001604052808e8481518110610daf57610daf612a2f565b6020026020010151600001516001600160a01b031681526020018e8481518110610ddb57610ddb612a2f565b6020908102919091018101518101516001600160e01b031916909152825460018181018555600094855293829020835191018054939092015160e01c600160a01b026001600160c01b03199093166001600160a01b039091161791909117905501610d62565b50336001600160a01b03166004547fec48fb81ac791e6f7255f085b7625d812f9a6535bb36883428d2e7f9ffbf5ff38c8b856001018c8c8c8c8c604051610e8f989796959493929190612a45565b60405180910390a350506004549998505050505050505050565b60005a60008581526005602052604081206006810180549394509092610f59918791610ed49061289c565b80601f0160208091040260200160405190810160405280929190818152602001828054610f009061289c565b8015610f4d5780601f10610f2257610100808354040283529160200191610f4d565b820191906000526020600020905b815481529060010190602001808311610f3057829003601f168201915b505050505088876115d8565b905060005b600183015481101561111957600080846001018381548110610f8257610f82612a2f565b6000918252602090912001546001860180546001600160a01b039092169185908110610fb057610fb0612a2f565b600091825260209091200154604051600160a01b90910460e01b90610fdd908c9087908d90602401612afb565b60408051601f198184030181529181526020820180516001600160e01b03166001600160e01b031990941693909317909252905161101b9190612b1a565b6000604051808303816000865af19150503d8060008114611058576040519150601f19603f3d011682016040523d82523d6000602084013e61105d565b606091505b5091509150816110af5760405162461bcd60e51b815260206004820152601860248201527f56616c69646174696f6e2063616c6c20726576657274656400000000000000006044820152606401610a64565b808060200190518101906110c391906128d6565b61110f5760405162461bcd60e51b815260206004820152601760248201527f56616c69646174696f6e20636865636b206661696c65640000000000000000006044820152606401610a64565b5050600101610f5e565b50600654600783015460405163a9059cbb60e01b815233600482015260248101919091526001600160a01b039091169063a9059cbb906044016020604051808303816000875af1158015611171573d6000803e3d6000fd5b505050506040513d601f19601f8201168201806040525081019061119591906128d6565b50816007015482600c0160008282546111ae9190612b36565b909155505042600883015560045460078301546040513392917f3d96854f92de3f5f0b87c770ee2a61ce6d5db42bec236a9179fc334a24420b6f916111f591908a90612b49565b60405180910390a360005a90506000489050808460090154101561121a575060098301545b600084600a01548261122c9190612b6a565b614e206112398589612b36565b6112439190612b6a565b61124d9190612b7d565b905084600b01548111156112625750600b8401545b8085600b0160008282546112769190612b36565b9091555050604051339082156108fc029083906000818181858888f193505050501580156112a8573d6000803e3d6000fd5b50505050505050505050565b60008181526003602052604081206104a990611676565b6000828152600260205260409020600101546112e68161133b565b6109f38383611367565b6112fe868686868686611680565b505050505050565b60006001600160e01b03198216637965db0b60e01b14806104a957506301ffc9a760e01b6001600160e01b03198316146104a9565b6101ce8133611acc565b61134f8282611b25565b60008281526003602052604090206109f39082611bab565b6113718282611bc0565b60008281526003602052604090206109f39082611c27565b6001600160a01b0381166113cf5760405162461bcd60e51b815260206004820152600d60248201526c24b73b30b634b2103a37b5b2b760991b6044820152606401610a64565b600680546001600160a01b0319166001600160a01b0383169081179091556040517f5ba6b30cd4b2f9e9e67f4feb9b9df10d5da3b057598e6901b217b7d590345e3090600090a250565b6000610ae38383611c3c565b81516001600160a01b031661147c5760405162461bcd60e51b815260206004820152601a60248201527f496e76616c69642076616c69646174696f6e20616464726573730000000000006044820152606401610a64565b60208201516001600160e01b0319166114d75760405162461bcd60e51b815260206004820152601b60248201527f496e76616c69642076616c69646174696f6e2066756e6374696f6e00000000006044820152606401610a64565b600082600001516001600160a01b0316836040015160045484866060015160405160240161150793929190612afb565b60408051601f198184030181529181526020820180516001600160e01b03166001600160e01b03199094169390931790925290516115459190612b1a565b6000604051808303816000865af19150503d8060008114611582576040519150601f19603f3d011682016040523d82523d6000602084013e611587565b606091505b50509050806109f35760405162461bcd60e51b815260206004820152601f60248201527f56616c69646174696f6e20696e6974616c697a6174696f6e206661696c6564006044820152606401610a64565b6000808585856040516020016115f093929190612b94565b60405160208183030381529060405280519060200120905060006116148285611c66565b90506001600160a01b03811661166c5760405162461bcd60e51b815260206004820152601960248201527f496e76616c696420656e636c617665207369676e6174757265000000000000006044820152606401610a64565b9695505050505050565b60006104a9825490565b600084815260208190526040902080546116999061289c565b90506000036117005760405162461bcd60e51b815260206004820152602d60248201527f41413a564b2d456e636c61766520696d61676520746f20766572696679206e6f60448201526c1d081dda1a5d195b1a5cdd1959609a1b6064820152608401610a64565b600061170b86611c8a565b6001600160a01b0381166000908152600160205260409020549091501561177f5760405162461bcd60e51b815260206004820152602260248201527f41413a564b2d456e636c617665206b657920616c726561647920766572696669604482015261195960f21b6064820152608401610a64565b6117a97f000000000000000000000000000000000000000000000000000000000000000042612b36565b6117b56103e884612bca565b116118025760405162461bcd60e51b815260206004820152601960248201527f41413a564b2d4174746573746174696f6e20746f6f206f6c64000000000000006044820152606401610a64565b6000858152602081905260408082208151606081019092528054829082906118299061289c565b80601f01602080910402602001604051908101604052809291908181526020018280546118559061289c565b80156118a25780601f10611877576101008083540402835291602001916118a2565b820191906000526020600020905b81548152906001019060200180831161188557829003601f168201915b505050505081526020016001820180546118bb9061289c565b80601f01602080910402602001604051908101604052809291908181526020018280546118e79061289c565b80156119345780601f1061190957610100808354040283529160200191611934565b820191906000526020600020905b81548152906001019060200180831161191757829003601f168201915b5050505050815260200160028201805461194d9061289c565b80601f01602080910402602001604051908101604052809291908181526020018280546119799061289c565b80156119c65780601f1061199b576101008083540402835291602001916119c6565b820191906000526020600020905b8154815290600101906020018083116119a957829003601f168201915b50505050508152505090507f00000000000000000000000000000000000000000000000000000000000000006001600160a01b031663ac0f0bd589898460000151856020015186604001518b8b8b6040518963ffffffff1660e01b8152600401611a37989796959493929190612bec565b60006040518083038186803b158015611a4f57600080fd5b505afa158015611a63573d6000803e3d6000fd5b5050506001600160a01b0383166000908152600160205260409081902088905551879150611a92908990612b1a565b604051908190038120907ff4837f1a66a1e5fbde2c40d0f6eff75183139e79b0fc1eaab280a3a0be38e7b190600090a35050505050505050565b611ad68282610aea565b610a7757611ae381611ce9565b611aee836020611cfb565b604051602001611aff929190612c71565b60408051601f198184030181529082905262461bcd60e51b8252610a6491600401612ce6565b611b2f8282610aea565b610a775760008281526002602090815260408083206001600160a01b03851684529091529020805460ff19166001179055611b673390565b6001600160a01b0316816001600160a01b0316837f2f8788117e7eff1d82e926ec794901d17c78024a50270940304540a733656f0d60405160405180910390a45050565b6000610ae3836001600160a01b038416611e97565b611bca8282610aea565b15610a775760008281526002602090815260408083206001600160a01b0385168085529252808320805460ff1916905551339285917ff6391f5c32d9c69d2a47ea670b442974b53935d1edc7fd64eb21e047a839171b9190a45050565b6000610ae3836001600160a01b038416611ee6565b6000826000018281548110611c5357611c53612a2f565b9060005260206000200154905092915050565b6000806000611c758585611fd9565b91509150611c828161201e565b509392505050565b60008151604014611cdd5760405162461bcd60e51b815260206004820152601960248201527f496e76616c6964207075626c6963206b6579206c656e677468000000000000006044820152606401610a64565b50805160209091012090565b60606104a96001600160a01b03831660145b60606000611d0a836002612b7d565b611d15906002612b6a565b67ffffffffffffffff811115611d2d57611d2d612435565b6040519080825280601f01601f191660200182016040528015611d57576020820181803683370190505b509050600360fc1b81600081518110611d7257611d72612a2f565b60200101906001600160f81b031916908160001a905350600f60fb1b81600181518110611da157611da1612a2f565b60200101906001600160f81b031916908160001a9053506000611dc5846002612b7d565b611dd0906001612b6a565b90505b6001811115611e48576f181899199a1a9b1b9c1cb0b131b232b360811b85600f1660108110611e0457611e04612a2f565b1a60f81b828281518110611e1a57611e1a612a2f565b60200101906001600160f81b031916908160001a90535060049490941c93611e4181612cf9565b9050611dd3565b508315610ae35760405162461bcd60e51b815260206004820181905260248201527f537472696e67733a20686578206c656e67746820696e73756666696369656e746044820152606401610a64565b6000818152600183016020526040812054611ede575081546001818101845560008481526020808220909301849055845484825282860190935260409020919091556104a9565b5060006104a9565b60008181526001830160205260408120548015611fcf576000611f0a600183612b36565b8554909150600090611f1e90600190612b36565b9050818114611f83576000866000018281548110611f3e57611f3e612a2f565b9060005260206000200154905080876000018481548110611f6157611f61612a2f565b6000918252602080832090910192909255918252600188019052604090208390555b8554869080611f9457611f94612d10565b6001900381819060005260206000200160009055905585600101600086815260200190815260200160002060009055600193505050506104a9565b60009150506104a9565b600080825160410361200f5760208301516040840151606085015160001a61200387828585612168565b94509450505050612017565b506000905060025b9250929050565b600081600481111561203257612032612d26565b0361203a5750565b600181600481111561204e5761204e612d26565b0361209b5760405162461bcd60e51b815260206004820152601860248201527f45434453413a20696e76616c6964207369676e617475726500000000000000006044820152606401610a64565b60028160048111156120af576120af612d26565b036120fc5760405162461bcd60e51b815260206004820152601f60248201527f45434453413a20696e76616c6964207369676e6174757265206c656e677468006044820152606401610a64565b600381600481111561211057612110612d26565b036101ce5760405162461bcd60e51b815260206004820152602260248201527f45434453413a20696e76616c6964207369676e6174757265202773272076616c604482015261756560f01b6064820152608401610a64565b6000807f7fffffffffffffffffffffffffffffff5d576e7357a4501ddfe92f46681b20a083111561219f5750600090506003612223565b6040805160008082526020820180845289905260ff881692820192909252606081018690526080810185905260019060a0016020604051602081039080840390855afa1580156121f3573d6000803e3d6000fd5b5050604051601f1901519150506001600160a01b03811661221c57600060019250925050612223565b9150600090505b94509492505050565b80356001600160a01b038116811461224357600080fd5b919050565b60006020828403121561225a57600080fd5b610ae38261222c565b80356001600160e01b03198116811461224357600080fd5b60006020828403121561228d57600080fd5b610ae382612263565b6000602082840312156122a857600080fd5b5035919050565b60005b838110156122ca5781810151838201526020016122b2565b50506000910152565b600081518084526122eb8160208601602086016122af565b601f01601f19169290920160200192915050565b600081516060845261231460608501826122d3565b90506020830151848203602086015261232d82826122d3565b9150506040830151848203604086015261234782826122d3565b95945050505050565b6001600160a01b038b168152610140602082018190526000906123758382018d6122ff565b90508281036040840152612389818c6122d3565b9050828103606084015261239d818b6122d3565b6080840199909952505060a081019590955260c085019390935260e084019190915261010083015261012090910152949350505050565b602081526000610ae360208301846122ff565b600080604083850312156123fa57600080fd5b8235915061240a6020840161222c565b90509250929050565b6000806040838503121561242657600080fd5b50508035926020909101359150565b634e487b7160e01b600052604160045260246000fd5b6040516080810167ffffffffffffffff8111828210171561246e5761246e612435565b60405290565b604051601f8201601f1916810167ffffffffffffffff8111828210171561249d5761249d612435565b604052919050565b600082601f8301126124b657600080fd5b813567ffffffffffffffff8111156124d0576124d0612435565b6124e3601f8201601f1916602001612474565b8181528460208386010111156124f857600080fd5b816020850160208301376000918101602001919091529392505050565b600082601f83011261252657600080fd5b8135602067ffffffffffffffff8083111561254357612543612435565b8260051b612552838201612474565b938452858101830193838101908886111561256c57600080fd5b84880192505b858310156126125782358481111561258a5760008081fd5b88016080818b03601f19018113156125a25760008081fd5b6125aa61244b565b6125b588840161222c565b815260406125c4818501612263565b8983015260606125d5818601612263565b838301529284013592888411156125ee57600091508182fd5b6125fc8e8b868801016124a5565b9083015250845250509184019190840190612572565b98975050505050505050565b60006060828403121561263057600080fd5b6040516060810167ffffffffffffffff828210818311171561265457612654612435565b81604052829350843591508082111561266c57600080fd5b612678868387016124a5565b8352602085013591508082111561268e57600080fd5b61269a868387016124a5565b602084015260408501359150808211156126b357600080fd5b506126c0858286016124a5565b6040830152505092915050565b60008060008060008060008060006101208a8c0312156126ec57600080fd5b893567ffffffffffffffff8082111561270457600080fd5b6127108d838e01612515565b9a5060208c013591508082111561272657600080fd5b6127328d838e016124a5565b995060408c013591508082111561274857600080fd5b6127548d838e0161261e565b985060608c013591508082111561276a57600080fd5b506127778c828d016124a5565b999c989b50969960808101359860a0820135985060c0820135975060e0820135965061010090910135945092505050565b6000806000606084860312156127bd57600080fd5b83359250602084013567ffffffffffffffff808211156127dc57600080fd5b6127e8878388016124a5565b935060408601359150808211156127fe57600080fd5b5061280b868287016124a5565b9150509250925092565b60008060008060008060c0878903121561282e57600080fd5b863567ffffffffffffffff8082111561284657600080fd5b6128528a838b016124a5565b9750602089013591508082111561286857600080fd5b5061287589828a016124a5565b96999698505050506040850135946060810135946080820135945060a09091013592509050565b600181811c908216806128b057607f821691505b6020821081036128d057634e487b7160e01b600052602260045260246000fd5b50919050565b6000602082840312156128e857600080fd5b81518015158114610ae357600080fd5b634e487b7160e01b600052601160045260246000fd5b600060018201612920576129206128f8565b5060010190565b601f8211156109f3576000816000526020600020601f850160051c810160208610156129505750805b601f850160051c820191505b818110156112fe5782815560010161295c565b815167ffffffffffffffff81111561298957612989612435565b61299d81612997845461289c565b84612927565b602080601f8311600181146129d257600084156129ba5750858301515b600019600386901b1c1916600185901b1785556112fe565b600085815260208120601f198616915b82811015612a01578886015182559484019460019091019084016129e2565b5085821015612a1f5787850151600019600388901b60f8161c191681555b5050505050600190811b01905550565b634e487b7160e01b600052603260045260246000fd5b6000610100808352612a598184018c6122d3565b905060208382036020850152612a6f828c6122d3565b915060408483036040860152828b548085526020850191508c6000526020600020945060005b81811015612acb5785546001600160a01b0381168452841b6001600160e01b031916858401526001958601959284019201612a95565b5050606086019a909a5250505050608081019490945260a084019290925260c083015260e0909101529392505050565b83815282602082015260606040820152600061234760608301846122d3565b60008251612b2c8184602087016122af565b9190910192915050565b818103818111156104a9576104a96128f8565b828152604060208201526000612b6260408301846122d3565b949350505050565b808201808211156104a9576104a96128f8565b80820281158282048414176104a9576104a96128f8565b606081526000612ba760608301866122d3565b8281036020840152612bb981866122d3565b915050826040830152949350505050565b600082612be757634e487b7160e01b600052601260045260246000fd5b500490565b6000610100808352612c008184018c6122d3565b90508281036020840152612c14818b6122d3565b90508281036040840152612c28818a6122d3565b90508281036060840152612c3c81896122d3565b90508281036080840152612c5081886122d3565b60a0840196909652505060c081019290925260e09091015295945050505050565b7f416363657373436f6e74726f6c3a206163636f756e7420000000000000000000815260008351612ca98160178501602088016122af565b7001034b99036b4b9b9b4b733903937b6329607d1b6017918401918201528351612cda8160288401602088016122af565b01602801949350505050565b602081526000610ae360208301846122d3565b600081612d0857612d086128f8565b506000190190565b634e487b7160e01b600052603160045260246000fd5b634e487b7160e01b600052602160045260246000fdfea2646970667358221220b85672f78764f1af2dc1db49717c3f551286c9b7d395fa5a44fa5762edadb72f64736f6c63430008180033",
    "linkReferences": {}
  },
  "methodIdentifiers": {
    "ATTESTATION_MAX_AGE()": "9aec990e",
    "ATTESTATION_VERIFIER()": "cd79f906",
    "DEFAULT_ADMIN_ROLE()": "a217fddf",
    "admin()": "f851a440",
    "createJob((address,bytes4,bytes4,bytes)[],string,(bytes,bytes,bytes),bytes,uint256,uint256,uint256,uint256,uint256)": "a7b39a15",
    "executeJob(uint256,bytes,bytes)": "a9d41730",
    "getRoleAdmin(bytes32)": "248a9ca3",
    "getRoleMember(bytes32,uint256)": "9010d07c",
    "getRoleMemberCount(bytes32)": "ca15c873",
    "getVerifiedKey(address)": "01d58fa3",
    "getWhitelistedImage(bytes32)": "2410f6ba",
    "grantRole(bytes32,address)": "2f2ff15d",
    "hasRole(bytes32,address)": "91d14854",
    "isEnclaveKeyValid(address)": "122748ab",
    "jobCount()": "4c5d8a0f",
    "jobs(uint256)": "180aedf3",
    "renounceRole(bytes32,address)": "36568abe",
    "revokeRole(bytes32,address)": "d547741f",
    "supportsInterface(bytes4)": "01ffc9a7",
    "token()": "fc0c546a",
    "updateToken(address)": "7ad3def2",
    "verifyKey(bytes,bytes,bytes32,uint256,uint256,uint256)": "fb94db2b"
  },
  "id": 32
}